{
  "_format": "hh-sol-artifact-1",
  "contractName": "Counter",
  "sourceName": "contracts/counter.sol",
  "abi": [
    {
      "inputs": [],
      "name": "decrementCounter",
      "outputs": [],
      "stateMutability": "nonpayable",
      "type": "function"
    },
    {
      "inputs": [],
      "name": "getCount",
      "outputs": [
        {
          "internalType": "uint256",
          "name": "",
          "type": "uint256"
        }
      ],
      "stateMutability": "view",
      "type": "function"
    },
    {
      "inputs": [],
      "name": "incrementCounter",
      "outputs": [],
      "stateMutability": "nonpayable",
      "type": "function"
    }
  ],
  "bytecode": "0x60806040526000805534801561001457600080fd5b50610100806100246000396000f3fe6080604052348015600f57600080fd5b5060043610603c5760003560e01c80635b34b966146041578063a87d942c146049578063f5c5ad8314605e575b600080fd5b60476064565b005b60005460405190815260200160405180910390f35b6047607b565b600160008082825460749190608b565b9091555050565b60016000808282546074919060a0565b60008219821115609b57609b60b4565b500190565b60008282101560af5760af60b4565b500390565b634e487b7160e01b600052601160045260246000fdfea26469706673582212203006f4d0afa4205e8d632aeb2552c0449733beda088eca7571baffde3d3d3b4764736f6c63430008040033",
  "linkReferences": {},
  "deployedLinkReferences": {}
}